:020000040800F2
:1000000000200020C908000891080008970800088F
:1000100000000000000000000000000000000000E0
:100020000000000000000000000000009D08000823
:100030000000000000000000A7080008B108000848
:100040001909000800000000190900081909000832
:1000500019090008190900081909000819090008F8
:100060000000000019090008190900081909000812
:100070001909000819090008190900080000000002
:1000800019090008190900080000000019090008F2
:1000900019090008190900081909000819090008B8
:1000A00019090008190900081909000819090008A8
:1000B0001909000800000000000000000000000016
:1000C00010B5064C2378002B07D1054B002B02D02E
:1000D000044800E000BF0123237010BD6C00002025
:1000E00000000000D8170008044B10B5002B03D007
:1000F0000349044800E000BF10BDC04600000000F6
:1001000070000020D8170008002243088B4274D3E7
:1001100003098B425FD3030A8B4244D3030B8B4208
:1001200028D3030C8B420DD3FF22090212BA030C11
:100130008B4202D31212090265D0030B8B4219D3F2
:1001400000E0090AC30B8B4201D3CB03C01A524112
:10015000830B8B4201D38B03C01A5241430B8B425A
:1001600001D34B03C01A5241030B8B4201D30B0343
:10017000C01A5241C30A8B4201D3CB02C01A52416A
:10018000830A8B4201D38B02C01A5241430A8B422D
:1001900001D34B02C01A5241030A8B4201D30B0216
:1001A000C01A5241CDD2C3098B4201D3CB01C01A30
:1001B000524183098B4201D38B01C01A524143093A
:1001C0008B4201D34B01C01A524103098B4201D328
:1001D0000B01C01A5241C3088B4201D3CB00C01A95
:1001E000524183088B4201D38B00C01A524143080D
:1001F0008B4201D34B00C01A5241411A00D2014632
:10020000524110467047FFE701B5002000F006F8A4
:1002100002BDC0460029F7D076E770477047C04658
:1002200080B500AF9023DB052021180000F022FEEE
:1002300003001800BD4680BD80B500AF9023DB05EC
:100240004021180000F016FE03001800BD4680BDD6
:1002500080B500AF9023DB058021180000F00AFE76
:1002600003001800BD4680BD80B500AF044B0121DE
:10027000180000F0FFFD03001800BD4680BDC04619
:100280000004004880B500AF044B0221180000F0C4
:10029000F1FD03001800BD4680BDC04600040048C3
:1002A00080B500AF044B0421180000F0E3FD03000B
:1002B0001800BD4680BDC0460004004880B500AFB0
:1002C0008023DB00044A1900100000F0D3FD030076
:1002D0001800BD4680BDC0460004004880B500AF90
:1002E00080231B01044A1900100000F0C3FD030025
:1002F0001800BD4680BDC0460004004880B582B0ED
:1003000000AF0200FB1D1A70FB1D1A788023190133
:100310009023DB05180000F0CAFDC046BD4602B0C0
:1003200080BD000080B582B000AF0200FB1D1A70D6
:10033000FB1D1A7880235B010348190000F0B7FD0C
:10034000C046BD4602B080BD0004004880B582B002
:1003500000AF0200FB1D1A70FB1D1A788023D90024
:100360009023DB05180000F0A2FDC046BD4602B098
:1003700080BD000080B582B000AF0200FB1D1A7086
:10038000FB1D1A7880239B010348190000F08FFDA4
:10039000C046BD4602B080BD0004004880B582B0B2
:1003A00000AF0200FB1D1A70FB1D1A788023990014
:1003B0009023DB05180000F07AFDC046BD4602B070
:1003C00080BD000080B582B000AF0200FB1D1A7036
:1003D000FB1D1A788023DB010348190000F067FD3C
:1003E000C046BD4602B080BD0004004880B582B062
:1003F00000AF0200FB1D1A70FB1D1A788023590004
:100400009023DB05180000F052FDC046BD4602B047
:1004100080BD000080B582B000AF0200FB1D1A70E5
:10042000FB1D1A7880231B020348190000F03FFDD2
:10043000C046BD4602B080BD0004004880B582B011
:1004400000AF0200FB1D1A70FB1D1A789023DB051C
:100450000221180000F02BFDC046BD4602B080BD51
:1004600080B582B000AF0200FB1D1A70FB1D1A7828
:100470009023DB050421180000F019FDC046BD469D
:1004800002B080BD80B582B000AF0200FB1D1A70C3
:10049000FB1D1A789023DB050821180000F007FDEA
:1004A000C046BD4602B080BD80B582B000AF02003C
:1004B000FB1D1A70FB1D1A789023DB051021180014
:1004C00000F0F5FCC046BD4602B080BD80B582B0EC
:1004D00000AF0200FB1D1A70FB1D1B7804481A00B8
:1004E000402100F0E4FCC046BD4602B080BDC046DD
:1004F0000004004880B582B000AF0200FB1D1A70F6
:10050000FB1D1B7804481A00202100F0D0FCC046D7
:10051000BD4602B080BDC0460004004880B582B030
:1005200000AF0200FB1D1A70FB1D1B7804481A0067
:10053000082100F0BCFCC046BD4602B080BDC046EC
:100540000004004880B582B000AF0200FB1D1A70A5
:10055000FB1D1B7804481A00102100F0A8FCC046BF
:10056000BD4602B080BDC0460004004880B582B0E0
:1005700000AF0200FB1D1A70FB1D1A789023DB05EB
:100580000121180000F093FCC046BD4602B080BDBA
:1005900080B582B000AF00F0C1F900F055F800F06E
:1005A00093F8254B00221A70FB1D00221A7032E0CE
:1005B000FB1D1A78214B9200D35800209847012048
:1005C00000F010FAFB1D1A781D4B9200D358984783
:1005D000031E0DD0184B1B780133DAB2164B1A707C
:1005E000FB1D1A78174B9200D3580020984706E05D
:1005F000FB1D1A78134B9200D35801209847FB1D1E
:100600001A780E4B9200D35801209847FB1D1A7898
:10061000FB1D01321A70FB1D1B78072BC8D9064B36
:100620001B78002B03D00120FFF7A0FFB9E70020C3
:10063000FFF79CFFB5E7C04688000020200000209F
:10064000000000204000002090B591B000AF1024C1
:100650003B19180030231A00002101F0B5F83B00C7
:10066000180010231A00002101F0AEF821007B18B9
:1006700002221A607B180122DA607B1810221A61AC
:100680007B1800221A627B18180000F02DFC031E54
:1006900001D000F0D3F83B0007221A603B00002293
:1006A0005A603B0000229A603B000022DA603B0067
:1006B0000021180000F032FF031E01D000F0BEF848
:1006C000C046BD4611B090BD90B589B000AF0C24B6
:1006D0003B19180014231A00002101F075F8524B41
:1006E0005A69514B802189020A435A614E4B5A691B
:1006F00080239B021340BB60BB684B4B5A694A4B3B
:100700008021C9020A435A61474B5A698023DB02A0
:1007100013407B607B689023DB05002201211800D9
:1007200000F0C5FB41499023DB050122180000F0D1
:10073000BEFB3F493F4B0122180000F0B8FB3B19BC
:100740001F221A603B1901225A603B1902229A604B
:100750003B190022DA603A199023DB0511001800DA
:1007600000F018FA3B19E0221A603B1900225A6087
:100770003B1901229A603A199023DB0511001800F9
:1007800000F008FA3B192C4A1A603B1900225A6003
:100790003B1901229A603B19264A1900100000F00B
:1007A000F9F921007B18F02212021A600C003B19A3
:1007B00001225A603B1901229A603B190022DA603B
:1007C0003B191C4A1900100000F0E4F921007B18C5
:1007D000F02212011A600C003B1901225A603B19E9
:1007E00001229A603B190022DA603A199023DB0556
:1007F0001100180000F0CEF921007B1878221A6051
:100800007B1801225A607B1802229A607B18002212
:10081000DA607B18074A1900100000F0BBF9C046E7
:10082000BD4609B090BDC046001002401E0F00003A
:1008300078F0000000040048870C000080B500AF8D
:1008400072B6C046FEE7000080B582B000AF0F4B25
:100850009A690E4B01210A439A610C4B9B69012254
:1008600013407B607B68094BDA69084B802149059E
:100870000A43DA61054BDA6980235B0513403B606C
:100880003B68C046BD4602B080BDC0460010024075
:1008900080B500AFFEE780B500AFFEE780B500AFE2
:1008A000C046BD4680BD80B500AFC046BD4680BDD8
:1008B00080B500AF00F07AF8C046BD4680BD80B577
:1008C00000AFC046BD4680BD0D4885460D480E4967
:1008D0000E4A002302E0D458C4500433C4188C429A
:1008E000F9D30B4A0B4C002301E013600432A242FF
:1008F000FBD3FFF7E4FF00F043FFFFF749FEFEE7FD
:1009000000200020000000206C00002028180008B3
:100910006C00002090000020FEE7000080B500AFD2
:10092000074B1A68064B10210A431A60032000F097
:1009300009F8FFF789FF00231800BD4680BDC046B7
:100940000020024090B583B000AF7860144B1C6863
:10095000144B1B781900FA239800FFF7D5FB03000E
:1009600019002000FFF7D0FB0300180000F005F984
:10097000031E01D001230FE07B68032B0BD879689D
:1009800001235B420022180000F0E2F8064B7A686F
:100990001A60002300E001231800BD4603B090BD9B
:1009A00060000020680000206400002080B500AFD7
:1009B000054B1B781A00054B1B68D218034B1A60B5
:1009C000C046BD4680BDC046680000208C000020A7
:1009D00080B500AF024B1B681800BD4680BDC04605
:1009E0008C00002080B584B000AF7860FFF7F0FF86
:1009F0000300BB607B68FB60FB68013305D00A4BDA
:100A00001B781A00FB689B18FB60C046FFF7E0FFED
:100A10000200BB68D31AFA689A42F7D8C046C046AB
:100A2000BD4604B080BDC0466800002090B583B0CC
:100A300000AF02003960FB1D1A70FB1D1B787F2B75
:100A400028D82F4AFB1D1B785BB29B08C0339B0044
:100A50009B58FA1D1278110003220A40D200FF2190
:100A600091400A00D2431A4011003B689B01FF22CB
:100A70001A40FB1D1B78180003230340DB009A403B
:100A80001F48FB1D1B785BB29B080A43C0339B00C9
:100A90001A5031E01B4AFB1D1B7819000F230B4035
:100AA000083B9B0806339B00D31804331B68FA1DD0
:100AB0001278110003220A40D200FF2191400A005F
:100AC000D2431A4011003B689B01FF221A40FB1DD4
:100AD0001B78180003230340DB009A400948FB1DE4
:100AE0001B781C000F232340083B9B080A43063356
:100AF0009B00C31804331A60C046BD4603B090BDC6
:100B000000E100E000ED00E080B582B000AF786069
:100B10007B685A1E80235B049A4201D3012310E0B4
:100B20000A4B7A68013A5A6001235B42032118009C
:100B3000FFF77CFF054B00229A60044B07221A60E6
:100B400000231800BD4602B080BDC04610E000E0A2
:100B500080B584B000AFB9607A600F217B18021CA9
:100B60001A70BA687B181B785BB211001800FFF787
:100B70005DFFC046BD4604B080BD80B582B000AF09
:100B800078607B681800FFF7BFFF03001800BD46C0
:100B900002B080BD80B586B000AF786039600023B8
:100BA0007B614FE13B681B6801217A6991400A0033
:100BB0001340FB60FB68002B00D140E13B685B68A1
:100BC00003221340012B05D03B685B6803221340CE
:100BD000022B30D17B689B683B617B695B00032201
:100BE0009A401300DA433B6913403B613B68DA6883
:100BF0007B695B009A4013003A6913433B617B6851
:100C00003A699A607B685B683B6101227B699A4024
:100C10001300DA433B6913403B613B685B681B0987
:100C200001221A407B699A4013003A6913433B61E1
:100C30007B683A695A603B685B6803221340032B68
:100C400017D07B68DB683B617B695B0003229A40BD
:100C50001300DA433B6913403B613B689A687B6948
:100C60005B009A4013003A6913433B617B683A6921
:100C7000DA603B685B6803221340022B23D17B6957
:100C8000DA087B6808329200D3583B617B690722FF
:100C900013409B000F229A401300DA433B69134034
:100CA0003B613B681A697B6907210B409B009A40B6
:100CB00013003A6913433B617B69DA087B680832A9
:100CC00092003969D1507B681B683B617B695B008E
:100CD00003229A401300DA433B6913403B613B68AF
:100CE0005B6803221A407B695B009A4013003A69F3
:100CF00013433B617B683A691A603B685A68C023BA
:100D00009B02134000D19AE0544B9A69534B012146
:100D10000A439A61514B9B6901221340BB60BB6837
:100D20004F4A7B699B0802339B009B583B617B6960
:100D3000032213409B000F229A401300DA433B69C1
:100D400013403B617A689023DB059A4213D07B689D
:100D5000444A93420DD07B68434A934207D07B6854
:100D6000424A934201D1032306E0052304E0022313
:100D700002E0012300E000237A6903210A40920087
:100D800093403A6913433B6135497B699B080233C1
:100D90009B003A695A50364B1B683B61FB68DA434B
:100DA0003B6913403B613B685A6880235B021340F8
:100DB00003D03A69FB6813433B612D4B3A691A60D3
:100DC0002B4B5B683B61FB68DA433B6913403B613B
:100DD0003B685A6880239B02134003D03A69FB6842
:100DE00013433B61224B3A695A60214B9B683B613C
:100DF000FB68DA433B6913403B613B685A688023D8
:100E00005B03134003D03A69FB6813433B61184B03
:100E10003A699A60164BDB683B61FB68DA433B69D1
:100E200013403B613B685A6880239B03134003D007
:100E30003A69FB6813433B610D4B3A69DA607B69A1
:100E400001337B613B681A687B69DA40131E00D06E
:100E5000A8E6C046C046BD4606B080BD00100240B0
:100E6000000001400004004800080048000C004851
:100E70000004014080B584B000AF78600A00BB1C5C
:100E80001A807B681B69BA1C1288134004D00F2398
:100E9000FB1801221A7003E00F23FB1800221A70BE
:100EA0000F23FB181B781800BD4604B080BD80B529
:100EB00082B000AF786008001100BB1C021C1A80D1
:100EC0007B1C0A1C1A707B1C1B78002B04D0BB1CDB
:100ED0001A887B689A6103E0BB1C1A887B689A6257
:100EE000C046BD4602B080BD80B588B000AF786016
:100EF0007B68002B01D1012301E37B681B68012281
:100F0000134000D18DE0C34B5B680C221340042BCF
:100F10000ED0C04B5B680C221340082B16D1BD4B82
:100F20005A6880235B021A4080235B029A420DD1EB
:100F3000B84B1A6880239B02134000D170E07B6895
:100F40005B68002B00D06BE00123D8E27B685B6814
:100F5000012B07D1AF4B1A68AE4B802149020A43DF
:100F60001A602FE07B685B68002B0CD1A94B1A68D4
:100F7000A84BA9490A401A60A64B1A68A54BA74975
:100F80000A401A601EE07B685B68052B0ED1A14BFE
:100F90001A68A04B8021C9020A431A609D4B1A6847
:100FA0009C4B802149020A431A600BE0994B1A6856
:100FB000984B99490A401A60964B1A68954B974985
:100FC0000A401A607B685B68002B14D0FFF700FDB5
:100FD0000300BB6108E0FFF7FBFC0200BB69D31A0A
:100FE000642B01D903238AE28A4B1A6880239B026F
:100FF0001340F0D015E0FFF7EBFC0300BB6108E005
:10100000FFF7E6FC0200BB69D31A642B01D9032366
:1010100075E2804B1A6880239B021340F0D100E0F8
:10102000C0467B681B680222134000D169E0794BFF
:101030005B680C2213400BD0764B5B680C2213408C
:10104000082B1CD1734B5A6880235B02134016D1C6
:10105000704B1B680222134005D07B68DB68012BB4
:1010600001D001234BE26B4B1B68F822934319001C
:101070007B681B69DA00674B0A431A6041E07B68B2
:10108000DB68002B24D0634B1A68624B01210A43B2
:101090001A60FFF79DFC0300BB6108E0FFF798FCB6
:1010A0000200BB69D31A022B01D9032327E2594B53
:1010B0001B6802221340F1D0564B1B68F822934361
:1010C00019007B681B69DA00524B0A431A6018E06A
:1010D000504B1A684F4B01218A431A60FFF778FC86
:1010E0000300BB6108E0FFF773FC0200BB69D31A81
:1010F000022B01D9032302E2464B1B680222134054
:10110000F1D17B681B680822134036D07B68DB690D
:10111000002B19D03F4B5A6A3E4B01210A435A62B9
:10112000FFF756FC0300BB6108E0FFF751FC02002B
:10113000BB69D31A022B01D90323E0E1354B5B6A6B
:1011400002221340F1D018E0324B5A6A314B012190
:101150008A435A62FFF73CFC0300BB6108E0FFF7DB
:1011600037FC0200BB69D31A022B01D90323C6E165
:10117000284B5B6A02221340F1D17B681B68042272
:10118000134000D1B4E01F203B1800221A70214BFD
:10119000DA6980235B05134010D11E4BDA691D4BC1
:1011A000802149050A43DA611A4BDA6980235B051D
:1011B0001340FB60FB683B1801221A70184B1A6839
:1011C00080235B0013401AD1154B1A68144B802101
:1011D00049000A431A60FFF7FBFB0300BB6108E00C
:1011E000FFF7F6FB0200BB69D31A642B01D9032376
:1011F00085E10B4B1A6880235B001340F0D07B68BD
:101200009B68012B0ED1034B1A6A024B01210A4342
:101210001A6235E000100240FFFFFEFFFFFFFBFFF8
:10122000007000407B689B68002B0CD1B64B1A6A9B
:10123000B54B01218A431A62B34B1A6AB24B04219F
:101240008A431A621CE07B689B68052B0CD1AE4B6D
:101250001A6AAD4B04210A431A62AB4B1A6AAA4BB5
:1012600001210A431A620BE0A74B1A6AA64B01211F
:101270008A431A62A44B1A6AA34B04218A431A6256
:101280007B689B68002B14D0FFF7A2FB0300BB61B7
:1012900009E0FFF79DFB0200BB69D31A9B4A93420A
:1012A00001D903232BE1984B1B6A02221340F0D093
:1012B00013E0FFF78DFB0300BB6109E0FFF788FB3C
:1012C0000200BB69D31A914A934201D9032316E164
:1012D0008D4B1B6A02221340F0D11F23FB181B7891
:1012E000012B05D1884BDA69874B89490A40DA61BD
:1012F0007B681B681022134063D07B685B69012BFD
:101300002AD1814B5A6B804B04210A435A637E4B8E
:101310005A6B7D4B01210A435A63FFF759FB0300C7
:10132000BB6108E0FFF754FB0200BB69D31A022B34
:1013300001D90323E3E0744B5B6B02221340F1D02D
:10134000714B5B6BF822934319007B689B69DA0051
:101350006D4B0A435A6334E07B685B69053311D1F6
:10136000694B5A6B684B04218A435A63664B5B6B2B
:10137000F822934319007B689B69DA00624B0A43A9
:101380005A631EE0604B5A6B5F4B04210A435A6359
:101390005D4B5A6B5C4B01218A435A63FFF718FB84
:1013A0000300BB6108E0FFF713FB0200BB69D31A1F
:1013B000022B01D90323A2E0534B5B6B02221340A3
:1013C000F1D17B681B6A002B00D197E04E4B5B6824
:1013D0000C221340082B00D16BE07B681B6A022BA8
:1013E0004CD1494B1A68484B4A490A401A60FFF7EA
:1013F000EFFA0300BB6108E0FFF7EAFA0200BB69FD
:10140000D31A022B01D9032379E03F4B1A688023BA
:101410009B041340F0D13C4BDB6A0F22934319002D
:101420007B68DA6A384B0A43DA62374B5B683A4AC0
:10143000134019007B689A6A7B685B6A1A43324BD7
:101440000A435A60304B1A682F4B802149040A43E3
:101450001A60FFF7BDFA0300BB6108E0FFF7B8FAB6
:101460000200BB69D31A022B01D9032347E0264BA4
:101470001A6880239B041340F0D03FE0224B1A6887
:10148000214B24490A401A60FFF7A2FA0300BB610E
:1014900008E0FFF79DFA0200BB69D31A022B01D9BD
:1014A00003232CE0184B1A6880239B041340F0D1CF
:1014B00024E07B681B6A012B01D101231FE0124B42
:1014C0005B687B61104BDB6A3B617A6980235B025E
:1014D0001A407B685B6A9A420ED13B690F221A4020
:1014E0007B68DB6A9A4207D17A69F0239B031A4032
:1014F0007B689B6A9A4201D0012300E00023180018
:10150000BD4608B080BDC0460010024088130000F0
:10151000FFFFFFEFFFFFFFFEFFFFC2FF80B584B0BC
:1015200000AF786039607B68002B01D10123B3E004
:101530005B4B1B68012213403A689A4211D9584B01
:101540001B68012293431900554B3A680A431A60FD
:10155000534B1B68012213403A689A4201D0012381
:101560009AE07B681B680222134015D07B681B68D9
:101570000422134006D04B4B5A684A4BE021C90065
:101580000A435A60474B5B68F022934319007B681B
:101590009A68444B0A435A607B681B6801221340D7
:1015A00040D07B685B68012B07D13E4B1A688023D3
:1015B0009B02134014D101236EE07B685B68022B11
:1015C00007D1384B1A6880239B04134008D10123AC
:1015D00062E0344B1B680222134001D101235BE01F
:1015E000304B5B680322934319007B685A682D4B8C
:1015F0000A435A60FFF7ECF90300FB6009E0FFF7CC
:10160000E7F90200FB68D31A274A934201D9032362
:1016100042E0244B5B680C221A407B685B689B00AD
:101620009A42ECD11E4B1B68012213403A689A4241
:1016300011D21B4B1B68012293431900184B3A68C7
:101640000A431A60164B1B68012213403A689A42FB
:1016500001D0012320E07B681B680422134009D0DD
:10166000104B5B68114A134019007B68DA680D4B18
:101670000A435A6000F020F801000A4B5B681B091E
:101680000F2213400A4AD35C0A00DA40094B1A6061
:101690000320FFF757F900231800BD4604B080BDB2
:1016A000002002400010024088130000FFF8FFFFF6
:1016B000101800086000002090B58FB000AF142310
:1016C000FB182B4A13CA13C312681A603B1D294A20
:1016D00013CA13C312681A600023FB620023BB62A3
:1016E00000237B6300237B6200233B63224B5B6808
:1016F000FB62FB6A0C221340042B02D0082B03D0A0
:101700002DE01E4B3B632DE0FB6A9B0C0F22134028
:101710001422BA18D35C7B62174BDB6A0F2213408A
:101720003A1DD35CBB62FA6A80235B02134009D086
:10173000B96A1248FEF7E8FC03001A007B6A5343BB
:101740007B6309E0796A0A005201521A93019B1ADD
:10175000DB005B181B027B637B6B3B6302E0074B88
:101760003B63C0463B6B1800BD460FB090BDC04602
:10177000F0170008001800080010024000127A005C
:1017800070B500260C4D0D4C641BA410A64209D167
:10179000002600F021F80A4D0A4C641BA410A64252
:1017A00005D170BDB300EB5898470136EEE7B300A2
:1017B000EB5898470136F2E7201800082018000877
:1017C000201800082418000803008218934200D152
:1017D000704719700133F9E7F8B5C046F8BC08BC8A
:1017E0009E467047F8B5C046F8BC08BC9E46704798
:1017F00002030405060708090A0B0C0D0E0F101052
:101800000102030405060708090A0B0C0D0E0F1050
:1018100000000000000000000102030406070809A0
:04182000E9000008D3
:04182400C1000008F7
:101828002102000839020008510200086902000874
:1018380085020008A1020008BD020008DD020008B8
:10184800FD020008250300084D0300087503000881
:101858009D030008C5030008ED03000815040008EF
:101868003D0400086104000885040008A904000874
:10187800CD040008F50400081D050008450500080A
:0C18880000127A000400000001000000C3
:04000005080008C91E
:00000001FF
